:101F7600AF4AEFD39410EF4005540FF541225407B2
:021F8600F54024
:011F88002236
:101EF8007F2B121FBA7B007A00794A7D011220C914
:0B1F08007BFF7A1F79767F0B0217C663
:101E8300853F32E532D394204003022062E532D30A
:0E1E930094104007E532540FF541228532408D
:011EA100221E
:0D203C007B007A0079227D027C00021DC12C
:101C8600E4F5367F807E25FDFC1214BF853C378542
:101C96003D38853E39E4F53AF53BFB7A00793F7DE0
:101CA60001FC121D907BFF7A1E79837F0A1217C6EC
:0B1CB6007BFF7A20793C7F030217C6F9
:0320F600021E4384
:0B2062007DC87C007F607E090218BB77
:0E1FE800121EBF7BFF7A2179087F060217C602
:0121080022B4
:101CF8007F01121B8ABF010D054CE54C75F003846A
:101D080085F04C8012E4FF121B8ABF010A0541E5E9
:101D180041B40B03754101E54C14600604700602DA
:061D28001C86121EF822C9
:0E1FF600121EA27BFF7A1C79F87F040217C628
:101F48003F065B4F666D7D077F6F777C395E7971E1
:091F58007638373E735C408000CE
:0311F500014B0F9C
:10184300E54024FE6014146016146009240370122A
:10185300754B0F800D754B0B8008754B118003750D
:101863004B0AE54C7019753518854B367537187565
:101873003818E54114F5397B187D117F0B8035E568
:101883004CB40119753518854B36753718753818EA
:10189300E54114F5397B187D0A7F018017753518EA
:1018A300854B36753718753818E54114F5397B18AB
:0818B3007D057F0A121E63226D
:101F6100121F137D07E4FF1220AE7BFF7A1879431D
:051F71007F020217C60B
:0C11F80001430A014101014200014001D5
:101F9A0075B43FE4F5B37BFF7A1C79C1FF0217C61B
:09207800C2C1D2C2C2C3D2C4220B
:09208100D2C1C2C2D2C3C2C42202
:09208A00C2C1C2C2C2C3D2C42209
:09209300C2C1D2C2C2C3C2C42200
:09209C00C2C1C2C2C2C3C2C42207
:101CC1000542E5428543F08485F042AF421220E6A9
:101CD100E542C39541501CE54024FE60101460109C
:101CE1001460072403700F02207802208102208AE9
:071CF10002209312209C2247
:0320F9008F4122F2
:0320FC008F4022F0
:100B580000EF00C500AF00A00096008E008700815E
:100B6800007C007800740071006D006B00680065FF
:100B780000630061005F005D005B005A005800568A
:100B880000550054005200510050004E004D004CDA
:100B9800004B004A00490048004700460045004411
:100BA80000430043004200410040003F003F003E38
:100BB800003D003D003C003B003A003A0039003956
:100BC800003800370037003600360035003400346E
:100BD8000033003300320032003100310030003081
:100BE800002F002F002E002E002D002D002C002C91
:100BF800002B002B002A002A0029002900290028A0
:100C080000280027002700260026002600250025AA
:100C180000240024002400230023002200220022B4
:100C280000210021002000200020001F001F001FBD
:100C3800001E001E001D001D001D001C001C001CC5
:100C4800001B001B001B001A001A001A00190019CB
:100C580000180018001800170017001700160016D3
:100C680000160015001500150014001400140013D8
:100C780000130013001200120012001100110010DE
:100C880000100010000F000F000F000E000E000EE5
:100C9800000D000D000D000C000C000C000B000BEB
:100CA800000B000A000A00090009000900080008F2
:100CB80000080007000700070006000600050005F9
:100CC80000360004000300030003000200020001D4
:100CD8000001000100000000FFFFFFFFFFFFFFFE13
:100CE800FFFEFFFDFFFDFFFCFFFCFFFBFFFBFFFA24
:100CF800FFFAFFF9FFF9FFF8FFF8FFF7FFF7FFF634
:100D0800FFF6FFF5FFF5FFF4FFF3FFF3FFF2FFF245
:100D1800FFF1FFF0FFF0FFEFFFEEFFEDFFEDFFEC5F
:100D2800FFEBFFEAFFE9FFE8FFE7FFE6FFE5FFE487
:100D3800FFE3FFE2FFE0FFDFFFDDFFDCFFDAFFD8C4
:0C0D4800FFD5FFD2FFCEFFC9FFC101693B
:0C120400022E00000230006402220000F4
:1019AA001220D278247C007D007E007F0A1208D0A3
:1019BA00852B23E5314530601FE53115317002155D
:1019CA0030E529AE287802CEC313CE13D8F9252FD5
:1019DA00F52FEE352EF52E22AE2EAF2F7C007D642C
:1019EA00120945EF25E0FFEE33FE74582FF5827495
:1019FA000B3EF583E493F52E740193F52FF522E45B
:0A1A0A00F52EF52FF530753164223A
:101FAA007F98121D2E7BFF7A1979AA7F010217C624
:0420F20000A8C00082
:03121000014C028C
:101F2E00121F9A121F61121FF61220F6121FE812CC
:0A1F3E001FAA1220EC121C4880FBC1
:0920A5008B88898C88898F888959
:1012130052007A8686008686008686008686008649
:09122300860086860041006F0977
:03002B000220E0D0
:0620E00053BCEFD20F32E9
:020F2600154F65
:100F2800200F030210CFC20F90006EE0B4090040FA
:100F3800030210B1900F43F8282873020F8A020F9A
:100F48005E020F70020F9C020F5E020F70020FB359
:100F5800020F5E020F70AFBDEFFEADBE7C00E42D48
:100F6800FFEC3E900070803CAFBDEFFEADBE7C0054
:100F7800E42DFFEC3E900072F0A3EFF075440102FF
:100F880010B7AFBDEFFEADBE7C00E42DFFEC3E9088
:100F980000748010AFBDEFFEADBE7C00E42DFFEC09
:100FA8003E900076F0A3EFF00210B7AFBDEFFEADB4
:100FB800BE7C00E42DFFEC3E900078F0A3EFF090AB
:100FC8000078E0FEA3E07807CEC313CE13D8F9A8C3
:100FD8004FF6C394065013A84FE675F003A4247A7D
:100FE800F582E43400F583E014F090006FE014F02B
:100FF80060030210B77409F0A84FE4F6A84FE6FFA3
:10100800C3940640030210B7EF75F003A4247AF5E1
:1010180082E43400F583E0C39480502AE6FF75F03B
:1010280003A4247BF582E43400F583E0D394804064
:1010380040EF75F003A4247CF582E43400F5837452
:1010480001F0F545802BA84FE6FF75F003A4247B3B
:10105800F582E43400F583E0C394805014EF75F012
:1010680003A4247CF582E43400F5837402F075450A
:1010780001A84FE6FF75F003A4247AF582E4340052
:10108800F583E0FEEF75F003A4247BF582E43400D9
:10109800F583EEF0E675F003A4247AF582E43400D3
:1010A800F5837486F00602100490006E74FFF090C9
:1010B800006EE0D39407400374FFF090006EE004E4
:0710C800F09020A593F5BC98
:0310CF00054F22A8
:02200400154F76
:09200600A84FA645E4F545E6FFEC
:03200F00054F2258
:02201200154F68
:09201400A84FA644E4F544E6FFE0
:03201D00054F224A
:101D2E008F9D75BC88439720D2AD90004574FFF00F
:101D3E00A3740FF0A37426F0A374FFF0A37420F025
:101D4E00A37404F0A374FFF0A37420F0A37412F034
:011D5E002262
:0720D2007B017A0079702206
:101B0000C3EF64809480403BD3EF6480948550336E
:101B1000EFFD3395E0FC90007C75F003ED120AF1C7
:101B2000EC75F003A42583F583E0FE90007C75F04E
:101B300003ED120AF1EC75F003A42583F583E4F0BC
:051B4000AF06227F0347
:011B4500227D
:041E1B00154F154FFB
:101E1F001220B7A84FA60608A607A84FE6FE08E6A9
:0F1E2F00FF4E600BEF24FFFFEE34FFFE1220C0CA
:051E3E00054F054F22D5
:101E430053B1EF43B210122102E4F5D975DA49D246
:101E5300DE90003F74FFF0A3741EF0A3741BF02206
:0818BB008E338F348C358D361D
:1018C3001220B7EF4E7066AF36AE351220C0C3E5B7
:1018D30034940AE5339400404BE47B18FAF9F8900A
:1018E30020F2120AD5120A1CC006C007AE33AF3469
:1018F300AB07AA06E4F9F8D007D006120A1CAB0717
:10190300AA06AFF9EFFEADE97C00E42DFFEC3ECF74
:101913002BCF3AAD07FCAF03AE02121F89D2D843D7
:0F192300DA01800612210253DAFE7F02227F03CF
:011932002292
:0C2056001220B7EF4E7002FF227F012223
:1013D600E4F5809000ACE0FFB40800505F9013EA9B
:1013E600F828287302140202140802140E021414B8
:1013F60002141A02142402142E021438C2A3C2A222
:101406008016C2A3C2A2801AC2A3C2A2801EC2A311
:10141600C2A28022C2A3D2A2C2A1C2A08020C2A31D
:10142600D2A2C2A1D2A08016C2A3D2A2D2A1C2A029
:10143600800CC2A3D2A2D2A1D2A08002D2A3C3EFB3
:101446006480948850299000ACE0FF3395E0FE74E8
:10145600A32FF58274003EF583E0FF3395E0FE741A
:10146600482FF582741F3EF583E493F580801E9025
:1014760000ACE0FFB408133395E0FE74A32FF582A9
:1014860074003EF583E0F5808003E4F5809000A2C9
:10149600E0FF9000ACE004FEF0D3EF6480F8EE6469
:1014A60080984014E0D36480948850047408F02235
:0914B6009000A1E09000ACF022CE
:101F1300E4F5937594FF5395F043960F90002A745C
:0B1F2300FFF0A37413F0A374D6F022AB
:0920AE009000A1EFF0A3EDF02277
:101E63009000A3EFF0A3EDF0A3EBF0A3E535F0A30F
:101E7300E536F0A3E537F0A3E538F0A3E539F02222
:0620E6009000ABEFF022B8
:10122C00014D004900AE94940094940094940041B4
:03123C0000AD1EE4
:0210D200154FB8
:1010D40020B2069000AEE014F020B3069000B1E018
:1010E40014F02097069000B4E014F09000ADE014E2
:1010F400F060030211F2741EF0A84FE4F6A84FE664
:10110400FFC36480948340030211F2EF3395E0FE41
:101114009000AE75F003EF120AF1EE75F003A4250A
:1011240083F583E0C3948050399000AF75F003EFEA
:10113400120AF1EE75F003A42583F583E0D39480BD
:10114400405AE6FF3395E0FE9000B075F003EF12CD
:101154000AF1EE75F003A42583F5837401F0F54DCF
:10116400803AA84FE6FF3395E0FE9000AF75F00398
:10117400EF120AF1EE75F003A42583F583E0C3941E
:101184008050199000B075F003EF120AF1EE75F07B
:1011940003A42583F5837402F0754D01A84FE6FF7F
:1011A400FD3395E0FC9000AE75F003ED120AF1EC0E
:1011B40075F003A42583F583E0FE9000AF75F0037A
:1011C400ED120AF1EC75F003A42583F583EEF0EF3C
:1011D4003395E0FE9000AE75F003EF120AF1EE7560
:0E11E400F003A42583F5837494F00602110134
:0311F200054F2284
:02202000154F5A
:09202200A84FA64DE4F54DE6FFC0
:03202B00054F223C
:101EA20090003074FFF0A37420F0A37420F090002F
:0D1EB2002D74FFF0A37410F0A374D2F02281
:101B8A00EF600764016003BF0233EFFD3395E0FCA9
:101B9A009000B075F003ED120AF1EC75F003A4257C
:101BAA0083F583E0FE9000B075F003ED120AF1ECC4
:0F1BBA0075F003A42583F583E4F0AF06227F03C3
:011BC90022F9
:10123F004100000A4100290A41006D0A040E000016
:10124F0000000114004600670000FFFF8FFFC10D73
:10125F00C105C108C101C10E60240005FF2109FFAE
:10126F002109FF2109FF2109FF2109FF2109FF2181
:10127F0009FF2109FF2109FF2109FF2109FF210989
:10128F006036002AFF2109FF2109FF20FFFF2109F6
:10129F00FF20FFFF2109FF20FFFF2109FF2109FF89
:1012AF002109FF20FFFF20FFFF20FFFF20FFFF216D
:0A12BF0009FF2109FF2109FF2109A1
:0121090022B3
:0320FF007F00223D
:101AB900438E805389F07BE07A2879017800902061
:101AC900F2120AD5121B46EFF404F58A7BE07A2854
:101AD900790178009020F2120AD5121B46C3E49FBF
:101AE900FFE49EFE74019DFDE49CFC7808120AC186
:071AF9008F8CD28CD2A922D0
:03000B00021A676F
:041A6700C0E0C0D04B
:101A6B00D5080A75084C300D020514D20DA203726D
:101A7B00045036150AE50A7030850C0AD207300A75
:101A8B0017E50D6007150D438F01801D538FFEC2A7
:101A9B00B5D51615C20A8011050BE50BD39406407C
:091AAB0008C203E5136002D20633
:051AB400D0D0D0E032AB
:101A1400300E47C20E9020F2120AD57810120AC175
:101A24008E468F47900003E0FEA3E0FFE4FCFD7BBD
:101A340019FAF9F8120991C006C007AE46AF47ABD0
:101A440007AA06E4F9F8D007D006121B4678031259
:101A54000AC1900065EEF0A3EFF0900065E0FEA3EC
:021A6400E0FFA1
:011A6600225D
:0920B700900067E0FEA3E0FF22A7
:0920C000900067EEF0A3EFF0229E
:101F890090006BEEF0A3EFF0900069ECF0A3EDF098
:011F99002225
:03210200C2B42242
:03003B0002157437
:10157400C0E0C083C082C0D075D000C004C005C024
:0315840006C00797
:1015870030DF04C2DF807D30DA04C2DA807630D9FA
:101597003DC2D9AFFBEFFEADEB7C00E42DFFEC3E87
:1015A70020000E900001F0A3EFF075DB11D2008050
:1015B70053FE900001E0FCA3E0FDC3EF9DFFEE9C0E
:1015C700A3F0A3EFF075DB00C200D20E803630D84F
:1015D70033C2D8900067E07002A3E06022B2B490F3
:1015E7000069E0FEA3E0F5EAEEF5FAA3E0FEA3E06A
:1015F700FF90006AE02FF0900069E03EF08005C29E
:04160700B453DAFE00
:10160B00D007D006D005D004D0D0D082D083D0E084
:01161B00329C
:0620EC00121AB9D2AF2266
:10173B003004047F0180027F00200A047E018002B6
:10174B007E00EE5F6074E515C39509506830023674
:10175B00750D01E515131313541FAB17AA18A9190F
:10176B00F5827583001208F6FFE515540704FEEFAA
:10177B00A806088002C333D8FC30D7057516038042
:10178B002F751601802AAB17AA18A91975F002E557
:10179B0015A4F58285F0831208F6F50DE51575F0A5
:1017AB0002A429F9EA35F0FA9000011208F6F516B1
:0A17BB000515D20A22C204438F1064
:0117C5002201
:1012E900900000E014F0701F740AF0D205900029F4
:1012F900E014F07012740AF0D20890006DE014F056
:101309007005740AF0D20190002AA3E0FAA3E0F96B
:10131900120AFD90002DA3E0FAA3E0F9120AFD904C
:101329000039A3E0FAA3E0F9120AFD900045A3E011
:10133900FAA3E0F9120AFD900054A3E0FAA3E0F938
:10134900120AFD90005DA3E0FAA3E0F9120AFD90EC
:10135900004BA3E0FAA3E0F9120AFDEF600C90003C
:101369001DA3E0FAA3E0F9120AFD90004EA3E0FAEA
:10137900A3E0F9120AFDEF600E900020A3E0FAA3A2
:10138900E0F9120AFDD20BE512D394004016D512EA
:101399003030090C900023A3E0FAA3E0F9120AFD0A
:1013A900D20C801D900051A3E0FAA3E0F9120AFDC6
:1013B900EF600E900023A3E0FAA3E0F9120AFDD230
:0D13C9000C900005A3E0FAA3E0F9020AFD74
:10161C0090003FA3E0FAA3E0F9120AFD900042A368
:10162C00E0FAA3E0F9120AFD900033A3E0FAA3E07C
:10163C00F9120AFD900008A3E0FAA3E0F9120AFDE2
:10164C00900030A3E0FAA3E0F9120AFDEF600C90D1
:10165C000011A3E0FAA3E0F9120AFD900036A3E012
:10166C00FAA3E0F9120AFDEF600C900017A3E0FA60
:10167C00A3E0F9120AFD900048A3E0FAA3E0F912E6
:10168C000AFDEF600C90001AA3E0FAA3E0F9120A2D
:10169C00FD30060EC206900026A3E0FAA3E0F91274
:0316AC000AFD2212
:101BCA0090000BA3E0FAA3E0F9120AFD90003CA3EF
:101BDA00E0FAA3E0F9120AFDEF600C900014A3E00A
:101BEA00FAA3E0F9120AFD900057A3E0FAA3E0F97C
:0F1BFA00120AFD90005AA3E0FAA3E0F9020AFDD7
:101DF000AF11AE10AD0FAC0E900060120AE590006E
:101E000064E514F0E4F511F510F50FF50EF51490F6
:0B1E1000000EA3E0FAA3E0F9020AFDB7
:101C4800300705C20712173B300D05C20D1212E905
:101C5800300505C20512161C300805C208121BCA39
:101C6800300105C201121DF0E5112401F511E4351A
:0E1C780010F510E4350FF50FE4350EF50E22D1
:1017C6008B328A338934EFB40C0050709017D9F8F5
:1017D6002828730217FD02180202180702180C02C5
:1017E600181102181602181B0218200218250218D2
:1017F6002A02182F021834900005803590000880C0
:101806003090000B802B90000E80269000118021D6
:10181600900017801C900014801790001A80129078
:10182600001D800D9000208008900023800390000A
:0D18360026E532F0A3E533F0A3E534F022FF
:0720D9007B017A007960220F
:0712C900014E004100B700D7
:0D20490020A409754E019000B77401F0222B
:02202E00154F4C
:09203000A84FA64EE4F54EE6FFB0
:03203900054F222E
:101EBF0090003C74FFF0A37420F0A3742EF09000F8
:0D1ECF003974FFF0A37420F0A37449F022D1
:021FCA00154FB1
:0A1FCC009000B7E0A84FF6FFE4F024
:031FD600054F2292
:101FBA0053B1DF43B220C2B5C20A8F0C438F10223D
:030053000219335C
:10193300C0E0C083C082C0D075D000C000C001C069
:0319430002C003DC
:10194600200313D203751B08751300751A00E50CE6
:10195600C313F50A803AE50BC394014031E51A2515
:10196600E0F51AE50BC394034002051AD51B21E5E1
:1019760013C3951C501A751B08AB1DAA1EA91F85FB
:101986001382758300E51A12092305138002C20328
:03199600750B00CE
:10199900D003D002D001D000D0D0D082D083D0E003
:0119A900320B
:0920C9008B1D8A1E891F8D1C224B
:03210500AF1322F3
:101D5F002003047F0180027F00200A047E0180029D
:101D6F007E00EE5F60188B178A188919EDC313F583
:101D7F0009C202E4F515538FEFD2047F02227F03CD
:011D8F002231
:101C09002003047F0180027F00200A047E018002F4
:101C19007E00EE5F6026538FEF750D10751608D2A2
:101C29000A438F018B178A188919ED75F008A404E6
:0F1C3900F509D202E4F515D2047F02227F0322BF
:101EDC002003047F0180027F00200A047E0180021F
:0C1EEC007E00EE5F60037F00227F012279
:1012D00055008C000000000000000000000000002D
:0812E000000001000000000005
:03004300020D5457
:100D5400C0E0C0F0C083C082C0D075D000C000C065
:100D640001C002C003C004C005C006C007E59A3034
:100D7400E142539AFD900091E0FEA3E0FFC390008E
:100D840090E09F90008FE09E501F90008CE0FBA3AA
:100D9400E0FAA3E0F9A3E475F00112097B85F0827F
:100DA400F5831208F6F59B800B900093E4F0E54977
:100DB4006002C2B7E59A20E003020F0B539AFE309B
:100DC4000C0BC20C900099E4F0A3F0D209E549643D
:100DD400026003020E65900097E0FEA3E0FFA3E02B
:100DE400FCA3E0FDC39FEC9E5071900094E0FBA334
:100DF400E0FAA3E0F98D828C83E59B12092390002D
:100E04009FE0FEA3E0FFC3ED9FEC9E50409000974F
:100E1400E0FCA3E0FDEF9DEE9C503290009CE0FBD3
:100E2400A3E0FAA3E0F9900099E0FEA3E0FFF582C5
:100E34008E831208F6FD900094E0FBA3E0FAA3E091
:100E4400F98F828E831208F66D6002C20990009AAF
:100E5400E004F07006900099E004F0854812020F57
:100E64000B900097E0FEA3E0FFA3E0FCA3E0FDC32A
:100E74009FEC9E5077900094E0FBA3E0FAA3E0F986
:100E84008D828C83E59B12092390009FE0FEA3E0F2
:100E9400FFC3ED9FEC9E5046900097E0FCA3E0FD5D
:100EA400EF9DEE9C503890009CE0FBA3E0FAA3E099
:100EB400F9900099E0FEA3E0FFF5828E831208F614
:100EC400FD900094E0FBA3E0FAA3E0F98F828E8307
:100ED4001208F66D600890009974FFF0A3F090007A
:100EE4009AE004F07006900099E004F0900097E016
:100EF400FEA3E0FFC390009AE09F900099E09E401B
:100F04000690009B7401F0D007D006D005D004D021
:100F140003D002D001D000D0D0D082D083D0F0D082
:020F2400E032B9
:021FD900154FA2
:0A1FDB0090009BE0A84FF6FFE4F031
:031FE500054F2283
:01210A0022B2
:1014BF008F358E348D338C32853649E549700280F5
:1014CF000343BA01E549701790005D74FFF0A374F0
:1014DF0021F0A3740AF0E4F5DBD290D2918020C200
:1014EF00B7AB35AA34A933A832E47F407E9CFDFC0C
:1014FF00120A1C8F48E5487003754801854812751C
:10150F009A10E47B04FAF9F89020F2120AD5120A25
:10151F001CAB35AA34A933A832120A1CEFF404F518
:10152F00D7E47B04FAF9F89020F2120AD5120A1CBC
:10153F00AB35AA34A933A832120A1CC3E49FFFE4C7
:10154F009EFE74019DFDE49CFC7808120AAE8FD6B6
:10155F00438E1443AF0190005174FFF0A3741FF03A
:05156F00A374D9F02275
:101D9000900094EBF0A3EAF0A3E9F0A3ECF0A3ED3C
:101DA000F090009FE53AF0A3E53BF090009CE5370A
:101DB000F0A3E538F0A3E539F0D20CE490009BF0F5
:011DC0002200
:101DC100900093E0702690008CEBF0A3EAF0A3E979
:101DD100F0E4A3F0A3F0A3ECF0A3EDF0A37401F001
:0F1DE100E5496002D2B7439A027F02227F0322B4
:0B206D00900093E07002FF227F012230
:030000000216AF36
:0C16AF00787FE4F6D8FD75814F0216F636
:1016BB00021F2EE493A3F8E493A34003F68001F2F8
:1016CB0008DFF48029E493A3F85407240CC8C33330
:1016DB00C4540F4420C8834004F456800146F6DFFF
:1016EB00E4800B01020408102040809011F5E47E89
:1016FB00019360BCA3FF543F30E509541FFEE493F4
:10170B00A360010ECF54C025E060A840B8E493A3BA
:10171B00FAE493A3F8E493A3C8C582C8CAC583CAE5
:10172B00F0A3C8C582C8CAC583CADFE9DEE780BE9D
:0112E8000005
:10080000E709F608DFFA8046E709F208DFFA803EDA
:1008100088828C83E709F0A3DFFA8032E309F608C7
:10082000DFFA8078E309F208DFFA807088828C832F
:10083000E309F0A3DFFA806489828A83E0A3F608E3
:10084000DFFA805889828A83E0A3F208DFFA804CBD
:1008500080D280FA80C680D4806980F28033801094
:1008600080A680EA809A80A880DA80E280CA8033FD
:1008700089828A83ECFAE493A3C8C582C8CCC58375
:10088000CCF0A3C8C582C8CCC583CCDFE9DEE78045
:100890000D89828A83E493A3F608DFF9ECFAA9F0C4
:1008A000EDFB2289828A83ECFAE0A3C8C582C8CC1A
:1008B000C583CCF0A3C8C582C8CCC583CCDFEADE33
:1008C000E880DB89828A83E493A3F208DFF980CC95
:1008D00088F0EF60010E4E60C388F0ED2402B4048E
:1008E0000050B9F582EB2402B4040050AF23234535
:0608F00082239008507302
:1008F600BB010CE58229F582E5833AF583E02250B7
:1009060006E92582F8E622BBFE06E92582F8E22200
:0D091600E58229F582E5833AF583E493221A
:10092300F8BB010DE58229F582E5833AF583E8F00A
:10093300225006E92582C8F622BBFE05E92582C8B6
:02094300F2229E
:10094500C2D5EC30E709B2D5E4C39DFDE49CFCEECD
:1009550030E715B2D5E4C39FFFE49EFE120B03C337
:10096500E49DFDE49CFC8003120B0330D507C3E432
:060975009FFFE49EFE223C
:10097B00A3F8E0C5F025F0F0E5821582700215832F
:06098B00E0C838F0E8228C
:10099100E88FF0A4CC8BF0A42CFCE98EF0A42CFC05
:1009A1008AF0EDA42CFCEA8EF0A4CDA8F08BF0A483
:1009B1002DCC3825F0FDE98FF0A42CCD35F0FCEBE2
:1009C1008EF0A4FEA9F0EB8FF0A4CFC5F02ECD39A7
:0F09D100FEE43CFCEAA42DCE35F0FDE43CFC2214
:1009E00075F008758200EF2FFFEE33FECD33CDCCCE
:1009F00033CCC58233C5829BED9AEC99E582984051
:100A00000CF582EE9BFEED9AFDEC99FC0FD5F0D62D
:100A1000E4CEFBE4CDFAE4CCF9A88222B800C1B957
:100A20000059BA002DEC8BF084CFCECDFCE5F0CB95
:100A3000F97818EF2FFFEE33FEED33FDEC33FCEBCE
:100A400033FB10D703994004EB99FB0FD8E5E4F989
:100A5000FA227818EF2FFFEE33FEED33FDEC33FC76
:100A6000C933C910D7059BE99A4007EC9BFCE99A6A
:100A7000F90FD8E0E4C9FAE4CCFB2275F010EF2FAF
:100A8000FFEE33FEED33FDCC33CCC833C810D707AF
:100A90009BEC9AE899400AED9BFDEC9AFCE899F8EA
:0E0AA0000FD5F0DAE4CDFBE4CCFAE4C8F9227D
:101B4600C2D5E830E70FB2D5E4C39BFBE49AFAE4CA
:101B560099F9E498F8EC30E717B2D5121B7C120A13
:101B66001CE4C39BFBE49AFAE499F9E498F8800331
:101B7600120A1C30D50DE4C39FFFE49EFEE49DFDD2
:041B8600E49CFC22BD
:100AAE00E8600FECC313FCED13FDEE13FEEF13FF26
:030ABE00D8F1224A
:100AC100E86010ECA2E713FCED13FDEE13FEEF134B
:040AD100FFD8F02238
:100AD500E493FC740193FD740293FE740393FF2267
:0C0AE500ECF0A3EDF0A3EEF0A3EFF02284
:0C0AF100A42582F582E5F03583F5832210
:060AFD008A838982E47384
:100B0300BC000BBE0029EF8DF084FFADF022E4CCD6
:100B1300F875F008EF2FFFEE33FEEC33FCEE9DEC9F
:100B2300984005FCEE9DFE0FD5F0E9E4CEFD22EDE5
:100B3300F8F5F0EE8420D21CFEADF075F008EF2F2F
:100B4300FFED33FD4007985006D5F0F222C398FD20
:050B53000FD5F0EA22BD
:00000001FF
